:100000000C9462000C948A000C948A000C948A0070
:100010000C948A000C948A000C948A000C948A0038
:100020000C948A000C948A000C948A000C948A0028
:100030000C948A000C948A000C948A000C948A0018
:100040000C940C020C948A000C947C020C945602C2
:100050000C948A000C948A000C948A000C948A00F8
:100060000C948A000C948A000000000025002800EF
:100070002B0000000000240027002A0000000000E0
:1000800023002600290004040404040404040202DA
:100090000202020203030303030301020408102007
:1000A0004080010204081020010204081020000012
:1000B0000008000201000003040700000000000027
:1000C0000000140411241FBECFEFD8E0DEBFCDBF67
:1000D00011E0A0E0B1E0E6EDF8E002C005900D927D
:1000E000A631B107D9F721E0A6E1B1E001C01D9228
:1000F000A23CB207E1F710E0C2E6D0E004C02197CD
:10010000FE010E946304C136D107C9F70E94AE0206
:100110000C9469040C9400003FB7F894809121017D
:1001200090912201A0912301B091240126B5A89BB2
:1001300005C02F3F19F00196A11DB11D3FBFBA2F79
:10014000A92F982F8827BC01CD01620F711D811D39
:10015000911D42E0660F771F881F991F4A95D1F7BE
:100160000895AF92BF92CF92DF92EF92FF920F93DA
:100170001F93CF93DF936C017B018B01040F151F3D
:10018000EB015E01AE18BF08C017D10759F06991A5
:10019000D601ED91FC910190F081E02DC601099509
:1001A000892B79F7C501DF91CF911F910F91FF90B6
:1001B000EF90DF90CF90BF90AF900895FC01538DEA
:1001C000448D252F30E0842F90E0821B930B541731
:1001D00010F0CF96089501970895FC01918D828DBE
:1001E000981761F0A28DAE0FBF2FB11D5D968C9157
:1001F000928D9F5F9F73928F90E008958FEF9FEF96
:100200000895FC01918D828D981731F0828DE80F51
:10021000F11D858D90E008958FEF9FEF0895FC010B
:10022000918D228D892F90E0805C9F4F821B9109D8
:100230008F739927089585E291E00E940F0121E0D4
:10024000892B09F420E0822F089580E090E0892B2B
:1002500029F00E941B0181110C9400000895FC01FB
:10026000A48DA80FB92FB11DA35ABF4F2C91848D17
:1002700090E001968F739927848FA689B7892C9374
:10028000A089B1898C91837080648C93938D848DC7
:10029000981306C00288F389E02D80818F7D8083CA
:1002A0000895EF92FF920F931F93CF93DF93EC018A
:1002B00081E0888F9B8D8C8D98131AC0E889F9890D
:1002C000808185FF15C09FB7F894EE89FF89608310
:1002D000E889F98980818370806480839FBF81E091
:1002E00090E0DF91CF911F910F91FF90EF900895D3
:1002F000F62E0B8D10E00F5F1F4F0F731127E02EAE
:100300008C8D8E110CC00FB607FCFACFE889F989E5
:10031000808185FFF5CFCE010E942F01F1CFEB8DBB
:10032000EC0FFD2FF11DE35AFF4FF0829FB7F894B9
:100330000B8FEA89FB8980818062CFCFCF93DF93D7
:10034000EC01888D8823B9F0AA89BB89E889F989ED
:100350008C9185FD03C0808186FD0DC00FB607FC22
:10036000F7CF8C9185FFF2CF808185FFEDCFCE0155
:100370000E942F01E9CFDF91CF9108958F929F9234
:10038000AF92BF920F931F93CF93DF93CDB7DEB79A
:10039000A1970FB6F894DEBF0FBECDBF19A24230B1
:1003A00008F44AE08E010F5D1F4F842E912CB12C72
:1003B000A12CA50194010E944104E62FB901CA01B4
:1003C000EA3044F5E05DD801EE938D01232B242B18
:1003D000252B79F790E080E0109769F0FD010190FE
:1003E0000020E9F73197AF014A1B5B0BBD0185E2A5
:1003F00091E00E94B100A1960FB6F894DEBF0FBE47
:10040000CDBFDF91CF911F910F91BF90AF909F9083
:100410008F900895E95CD7CF1F920F920FB60F927D
:1004200011242F933F938F939F93AF93BF9380910A
:100430001D0190911E01A0911F01B09120013091EA
:100440001C0123E0230F2D3758F50196A11DB11D86
:1004500020931C0180931D0190931E01A0931F0106
:10046000B09320018091210190912201A09123015C
:10047000B09124010196A11DB11D8093210190939B
:100480002201A0932301B0932401BF91AF919F91CA
:100490008F913F912F910F900FBE0F901F90189545
:1004A00026E8230F0296A11DB11DD2CF1F920F92F5
:1004B0000FB60F9211242F933F934F935F936F9337
:1004C0007F938F939F93AF93BF93EF93FF9385E2B7
:1004D00091E00E942F01FF91EF91BF91AF919F9109
:1004E0008F917F916F915F914F913F912F910F90DD
:1004F0000FBE0F901F9018951F920F920FB60F927C
:1005000011242F938F939F93EF93FF93E0913501E5
:10051000F09136018081E0913B01F0913C0182FD38
:100520001BC0908180913E018F5F8F7320913F01AE
:10053000821741F0E0913E01F0E0EB5DFE4F958FB8
:1005400080933E01FF91EF919F918F912F910F909A
:100550000FBE0F901F9018958081F4CF789484B5CA
:10056000826084BD84B5816084BD85B5826085BDAF
:1005700085B5816085BD80916E00816080936E003D
:10058000109281008091810082608093810080912F
:1005900081008160809381008091800081608093E0
:1005A00080008091B10084608093B1008091B000A0
:1005B00081608093B00080917A00846080937A009B
:1005C00080917A00826080937A0080917A008160C5
:1005D00080937A0080917A00806880937A001092EC
:1005E000C100E0913501F091360182E08083E09115
:1005F0003101F09132011082E0913301F091340128
:100600008FEC808310923D01E0913901F0913A0125
:1006100086E08083E0913701F0913801808180612C
:100620008083E0913701F091380180818860808378
:10063000E0913701F0913801808180688083E091FA
:100640003701F091380180818F7D80836DE9862E9E
:1006500060E0962EF4012491C9E8D0E0FE01849177
:100660008823C9F090E0880F991FFC01EE58FF4FD6
:10067000A591B491FC01E859FF4F459154913FB7C2
:10068000F8949C91822F809598239C93FA019081F5
:10069000892380833FBF31EB232E30E0332E40E0AF
:1006A000A42E40E0B42E01E010E0F1018491F401A9
:1006B0009491FE01249121113CC010921B011092D3
:1006C0001A0180911A0190911B0190931901809356
:1006D00018010E948C002B013C0182E3C82ED12C12
:1006E000E12CF12C0E948C00641975098609970988
:1006F000683E734081059105A8F3F1E0CF1AD10857
:10070000E108F10828EE420E23E0521E611C711C24
:10071000C114D104E104F10429F7A114B10409F4CE
:10072000C4CF0E941B01882309F4BFCF0E940000A0
:10073000BCCF882359F0833009F45AC008F04DC06B
:10074000813009F45BC0823009F45CC0E22FF0E034
:10075000EE0FFF1FE458FF4FA591B4918C919823A1
:1007600009F4ABCF10931B0100931A01809118017B
:1007700090911901892B09F0A4CF809116019091D5
:100780001701892B09F04BC0109317010093160134
:10079000C0901601D09017010D2C000CEE08FF0838
:1007A0004AE0C701B601F7FE0DC06DE285E291E0B7
:1007B0000E94510166277727CB016C197D098E09AC
:1007C0009F094AE00E94BE0142E050E062E171E010
:1007D00085E291E00E94B10074CF8730B1F088309B
:1007E000D1F0843009F0B2CF809180008F7D03C0BA
:1007F000809180008F7780938000A8CF84B58F7719
:1008000084BDA4CF84B58F7DFBCF8091B0008F775E
:100810008093B0009BCF8091B0008F7DF9CF109274
:10082000170110921601B4CFE5E2F1E013821282B3
:1008300088EE93E0A0E0B0E084839583A683B7833D
:1008400084E091E09183808385EC90E095878487B4
:1008500084EC90E09787868780EC90E0918B808B8A
:1008600081EC90E0938B828B82EC90E0958B848B73
:1008700086EC90E0978B868B118E128E138E148EE1
:100880000895A1E21A2EAA1BBB1BFD010DC0AA1FD1
:10089000BB1FEE1FFF1FA217B307E407F50720F0E9
:1008A000A21BB30BE40BF50B661F771F881F991F64
:1008B0001A9469F760957095809590959B01AC01AD
:1008C000BD01CF010895EE0FFF1F0590F491E02DBB
:0608D0000994F894FFCF2B
:1008D600000000005101B100DE009E010F01ED0095
:0608E60001010D0A0000F3
:00000001FF
